{
    "contractName": "MNFTMarketplace",
    "abi": [
        {
            "anonymous": false,
            "inputs": [
                {
                    "indexed": true,
                    "internalType": "address",
                    "name": "admin",
                    "type": "address"
                },
                {
                    "indexed": false,
                    "internalType": "uint256",
                    "name": "oldFee",
                    "type": "uint256"
                },
                {
                    "indexed": false,
                    "internalType": "uint256",
                    "name": "newFee",
                    "type": "uint256"
                }
            ],
            "name": "DepositFeeChanged",
            "type": "event"
        },
        {
            "anonymous": false,
            "inputs": [
                {
                    "indexed": true,
                    "internalType": "uint256",
                    "name": "itemId",
                    "type": "uint256"
                },
                {
                    "indexed": true,
                    "internalType": "address",
                    "name": "account",
                    "type": "address"
                },
                {
                    "indexed": false,
                    "internalType": "uint256",
                    "name": "amount",
                    "type": "uint256"
                }
            ],
            "name": "DepositFeeTransferred",
            "type": "event"
        },
        {
            "anonymous": false,
            "inputs": [
                {
                    "indexed": true,
                    "internalType": "uint256",
                    "name": "itemId",
                    "type": "uint256"
                },
                {
                    "indexed": true,
                    "internalType": "address",
                    "name": "account",
                    "type": "address"
                },
                {
                    "indexed": false,
                    "internalType": "uint256",
                    "name": "amount",
                    "type": "uint256"
                }
            ],
            "name": "ExcessDepositFeeTransferred",
            "type": "event"
        },
        {
            "anonymous": false,
            "inputs": [
                {
                    "indexed": true,
                    "internalType": "uint256",
                    "name": "itemId",
                    "type": "uint256"
                },
                {
                    "indexed": true,
                    "internalType": "uint256",
                    "name": "tokenId",
                    "type": "uint256"
                },
                {
                    "indexed": true,
                    "internalType": "address",
                    "name": "nftContract",
                    "type": "address"
                },
                {
                    "indexed": false,
                    "internalType": "address",
                    "name": "seller",
                    "type": "address"
                },
                {
                    "indexed": false,
                    "internalType": "uint256",
                    "name": "numberOfItemsAvailable",
                    "type": "uint256"
                },
                {
                    "indexed": false,
                    "internalType": "uint256",
                    "name": "pricePerItem",
                    "type": "uint256"
                },
                {
                    "indexed": false,
                    "internalType": "uint256",
                    "name": "depositFee",
                    "type": "uint256"
                },
                {
                    "indexed": false,
                    "internalType": "uint8",
                    "name": "paymentOption",
                    "type": "uint8"
                }
            ],
            "name": "MarketItemCreated",
            "type": "event"
        },
        {
            "anonymous": false,
            "inputs": [
                {
                    "indexed": true,
                    "internalType": "uint256",
                    "name": "itemId",
                    "type": "uint256"
                },
                {
                    "indexed": true,
                    "internalType": "address",
                    "name": "seller",
                    "type": "address"
                },
                {
                    "indexed": false,
                    "internalType": "uint256",
                    "name": "numberOfItemsRemoved",
                    "type": "uint256"
                },
                {
                    "indexed": false,
                    "internalType": "uint256",
                    "name": "numberOfItemsRemaining",
                    "type": "uint256"
                }
            ],
            "name": "MarketItemRemoved",
            "type": "event"
        },
        {
            "anonymous": false,
            "inputs": [
                {
                    "indexed": true,
                    "internalType": "uint256",
                    "name": "itemId",
                    "type": "uint256"
                },
                {
                    "indexed": true,
                    "internalType": "address",
                    "name": "seller",
                    "type": "address"
                },
                {
                    "indexed": false,
                    "internalType": "address",
                    "name": "owner",
                    "type": "address"
                },
                {
                    "indexed": false,
                    "internalType": "uint256",
                    "name": "numberOfItems",
                    "type": "uint256"
                },
                {
                    "indexed": false,
                    "internalType": "uint256",
                    "name": "pricePerItem",
                    "type": "uint256"
                },
                {
                    "indexed": true,
                    "internalType": "address",
                    "name": "creator",
                    "type": "address"
                },
                {
                    "indexed": false,
                    "internalType": "uint256",
                    "name": "royalty",
                    "type": "uint256"
                },
                {
                    "indexed": false,
                    "internalType": "uint256",
                    "name": "serviceFee",
                    "type": "uint256"
                },
                {
                    "indexed": false,
                    "internalType": "uint8",
                    "name": "paymentOption",
                    "type": "uint8"
                }
            ],
            "name": "MarketItemSold",
            "type": "event"
        },
        {
            "anonymous": false,
            "inputs": [
                {
                    "indexed": true,
                    "internalType": "bytes32",
                    "name": "role",
                    "type": "bytes32"
                },
                {
                    "indexed": true,
                    "internalType": "bytes32",
                    "name": "previousAdminRole",
                    "type": "bytes32"
                },
                {
                    "indexed": true,
                    "internalType": "bytes32",
                    "name": "newAdminRole",
                    "type": "bytes32"
                }
            ],
            "name": "RoleAdminChanged",
            "type": "event"
        },
        {
            "anonymous": false,
            "inputs": [
                {
                    "indexed": true,
                    "internalType": "bytes32",
                    "name": "role",
                    "type": "bytes32"
                },
                {
                    "indexed": true,
                    "internalType": "address",
                    "name": "account",
                    "type": "address"
                },
                {
                    "indexed": true,
                    "internalType": "address",
                    "name": "sender",
                    "type": "address"
                }
            ],
            "name": "RoleGranted",
            "type": "event"
        },
        {
            "anonymous": false,
            "inputs": [
                {
                    "indexed": true,
                    "internalType": "bytes32",
                    "name": "role",
                    "type": "bytes32"
                },
                {
                    "indexed": true,
                    "internalType": "address",
                    "name": "account",
                    "type": "address"
                },
                {
                    "indexed": true,
                    "internalType": "address",
                    "name": "sender",
                    "type": "address"
                }
            ],
            "name": "RoleRevoked",
            "type": "event"
        },
        {
            "anonymous": false,
            "inputs": [
                {
                    "indexed": true,
                    "internalType": "address",
                    "name": "admin",
                    "type": "address"
                },
                {
                    "indexed": false,
                    "internalType": "uint256",
                    "name": "oldFee",
                    "type": "uint256"
                },
                {
                    "indexed": false,
                    "internalType": "uint256",
                    "name": "newFee",
                    "type": "uint256"
                }
            ],
            "name": "ServiceFeeChanged",
            "type": "event"
        },
        {
            "anonymous": false,
            "inputs": [
                {
                    "indexed": true,
                    "internalType": "address",
                    "name": "admin",
                    "type": "address"
                },
                {
                    "indexed": true,
                    "internalType": "address",
                    "name": "account",
                    "type": "address"
                },
                {
                    "indexed": false,
                    "internalType": "uint256",
                    "name": "amount",
                    "type": "uint256"
                },
                {
                    "indexed": false,
                    "internalType": "uint8",
                    "name": "paymentOption",
                    "type": "uint8"
                }
            ],
            "name": "ServiceFeeClaimed",
            "type": "event"
        },
        {
            "anonymous": false,
            "inputs": [
                {
                    "indexed": true,
                    "internalType": "uint256",
                    "name": "itemId",
                    "type": "uint256"
                },
                {
                    "indexed": true,
                    "internalType": "address",
                    "name": "from",
                    "type": "address"
                },
                {
                    "indexed": true,
                    "internalType": "address",
                    "name": "to",
                    "type": "address"
                },
                {
                    "indexed": false,
                    "internalType": "uint256",
                    "name": "amount",
                    "type": "uint256"
                }
            ],
            "name": "TransferredPaymentToTheSeller",
            "type": "event"
        },
        {
            "anonymous": false,
            "inputs": [
                {
                    "indexed": true,
                    "internalType": "uint256",
                    "name": "itemId",
                    "type": "uint256"
                },
                {
                    "indexed": true,
                    "internalType": "address",
                    "name": "account",
                    "type": "address"
                },
                {
                    "indexed": false,
                    "internalType": "uint256",
                    "name": "amount",
                    "type": "uint256"
                }
            ],
            "name": "TransferredRoyaltyToTheCreator",
            "type": "event"
        },
        {
            "anonymous": false,
            "inputs": [
                {
                    "indexed": true,
                    "internalType": "address",
                    "name": "admin",
                    "type": "address"
                },
                {
                    "indexed": false,
                    "internalType": "address[]",
                    "name": "nftContracts",
                    "type": "address[]"
                }
            ],
            "name": "WhitelistedNFTContracts",
            "type": "event"
        },
        {
            "inputs": [],
            "name": "ADMIN_ROLE",
            "outputs": [
                {
                    "internalType": "bytes32",
                    "name": "",
                    "type": "bytes32"
                }
            ],
            "stateMutability": "view",
            "type": "function"
        },
        {
            "inputs": [],
            "name": "DEFAULT_ADMIN_ROLE",
            "outputs": [
                {
                    "internalType": "bytes32",
                    "name": "",
                    "type": "bytes32"
                }
            ],
            "stateMutability": "view",
            "type": "function"
        },
        {
            "inputs": [
                {
                    "internalType": "uint256",
                    "name": "_itemId",
                    "type": "uint256"
                },
                {
                    "internalType": "uint256",
                    "name": "_numberOfItems",
                    "type": "uint256"
                }
            ],
            "name": "buyMarketItem",
            "outputs": [],
            "stateMutability": "payable",
            "type": "function"
        },
        {
            "inputs": [
                {
                    "internalType": "uint256",
                    "name": "_newFee",
                    "type": "uint256"
                }
            ],
            "name": "changeDepositFee",
            "outputs": [],
            "stateMutability": "nonpayable",
            "type": "function"
        },
        {
            "inputs": [
                {
                    "internalType": "uint256",
                    "name": "_newFee",
                    "type": "uint256"
                }
            ],
            "name": "changeServiceFee",
            "outputs": [],
            "stateMutability": "nonpayable",
            "type": "function"
        },
        {
            "inputs": [
                {
                    "internalType": "uint256",
                    "name": "_tokenId",
                    "type": "uint256"
                },
                {
                    "internalType": "address",
                    "name": "_nftContract",
                    "type": "address"
                },
                {
                    "internalType": "uint256",
                    "name": "_numberOfItems",
                    "type": "uint256"
                },
                {
                    "internalType": "uint256",
                    "name": "_pricePerItem",
                    "type": "uint256"
                },
                {
                    "internalType": "uint8",
                    "name": "_paymentOption",
                    "type": "uint8"
                }
            ],
            "name": "createMarketItem",
            "outputs": [],
            "stateMutability": "payable",
            "type": "function"
        },
        {
            "inputs": [],
            "name": "getCurrentItemId",
            "outputs": [
                {
                    "internalType": "uint256",
                    "name": "",
                    "type": "uint256"
                }
            ],
            "stateMutability": "view",
            "type": "function"
        },
        {
            "inputs": [],
            "name": "getDepositFee",
            "outputs": [
                {
                    "internalType": "uint256",
                    "name": "",
                    "type": "uint256"
                }
            ],
            "stateMutability": "view",
            "type": "function"
        },
        {
            "inputs": [
                {
                    "internalType": "bytes32",
                    "name": "role",
                    "type": "bytes32"
                }
            ],
            "name": "getRoleAdmin",
            "outputs": [
                {
                    "internalType": "bytes32",
                    "name": "",
                    "type": "bytes32"
                }
            ],
            "stateMutability": "view",
            "type": "function"
        },
        {
            "inputs": [],
            "name": "getServiceFee",
            "outputs": [
                {
                    "internalType": "uint256",
                    "name": "",
                    "type": "uint256"
                }
            ],
            "stateMutability": "view",
            "type": "function"
        },
        {
            "inputs": [],
            "name": "getWhitelistedContracts",
            "outputs": [
                {
                    "internalType": "address[]",
                    "name": "",
                    "type": "address[]"
                }
            ],
            "stateMutability": "view",
            "type": "function"
        },
        {
            "inputs": [
                {
                    "internalType": "bytes32",
                    "name": "role",
                    "type": "bytes32"
                },
                {
                    "internalType": "address",
                    "name": "account",
                    "type": "address"
                }
            ],
            "name": "grantRole",
            "outputs": [],
            "stateMutability": "nonpayable",
            "type": "function"
        },
        {
            "inputs": [
                {
                    "internalType": "bytes32",
                    "name": "role",
                    "type": "bytes32"
                },
                {
                    "internalType": "address",
                    "name": "account",
                    "type": "address"
                }
            ],
            "name": "hasRole",
            "outputs": [
                {
                    "internalType": "bool",
                    "name": "",
                    "type": "bool"
                }
            ],
            "stateMutability": "view",
            "type": "function"
        },
        {
            "inputs": [
                {
                    "internalType": "address",
                    "name": "token",
                    "type": "address"
                }
            ],
            "name": "initialize",
            "outputs": [],
            "stateMutability": "nonpayable",
            "type": "function"
        },
        {
            "inputs": [
                {
                    "internalType": "uint256",
                    "name": "",
                    "type": "uint256"
                }
            ],
            "name": "marketItems",
            "outputs": [
                {
                    "internalType": "address",
                    "name": "nftContract",
                    "type": "address"
                },
                {
                    "internalType": "address",
                    "name": "seller",
                    "type": "address"
                },
                {
                    "internalType": "uint256",
                    "name": "tokenId",
                    "type": "uint256"
                },
                {
                    "internalType": "uint256",
                    "name": "itemsAvailable",
                    "type": "uint256"
                },
                {
                    "internalType": "uint256",
                    "name": "pricePerItem",
                    "type": "uint256"
                },
                {
                    "internalType": "uint256",
                    "name": "itemsSold",
                    "type": "uint256"
                },
                {
                    "internalType": "uint256",
                    "name": "depositFee",
                    "type": "uint256"
                },
                {
                    "internalType": "uint8",
                    "name": "paymentOption",
                    "type": "uint8"
                }
            ],
            "stateMutability": "view",
            "type": "function"
        },
        {
            "inputs": [
                {
                    "internalType": "address",
                    "name": "",
                    "type": "address"
                },
                {
                    "internalType": "address",
                    "name": "",
                    "type": "address"
                },
                {
                    "internalType": "uint256[]",
                    "name": "",
                    "type": "uint256[]"
                },
                {
                    "internalType": "uint256[]",
                    "name": "",
                    "type": "uint256[]"
                },
                {
                    "internalType": "bytes",
                    "name": "",
                    "type": "bytes"
                }
            ],
            "name": "onERC1155BatchReceived",
            "outputs": [
                {
                    "internalType": "bytes4",
                    "name": "",
                    "type": "bytes4"
                }
            ],
            "stateMutability": "nonpayable",
            "type": "function"
        },
        {
            "inputs": [
                {
                    "internalType": "address",
                    "name": "",
                    "type": "address"
                },
                {
                    "internalType": "address",
                    "name": "",
                    "type": "address"
                },
                {
                    "internalType": "uint256",
                    "name": "",
                    "type": "uint256"
                },
                {
                    "internalType": "uint256",
                    "name": "",
                    "type": "uint256"
                },
                {
                    "internalType": "bytes",
                    "name": "",
                    "type": "bytes"
                }
            ],
            "name": "onERC1155Received",
            "outputs": [
                {
                    "internalType": "bytes4",
                    "name": "",
                    "type": "bytes4"
                }
            ],
            "stateMutability": "nonpayable",
            "type": "function"
        },
        {
            "inputs": [
                {
                    "internalType": "uint256",
                    "name": "_itemId",
                    "type": "uint256"
                },
                {
                    "internalType": "uint256",
                    "name": "_amount",
                    "type": "uint256"
                }
            ],
            "name": "removeMarketItems",
            "outputs": [],
            "stateMutability": "nonpayable",
            "type": "function"
        },
        {
            "inputs": [
                {
                    "internalType": "bytes32",
                    "name": "role",
                    "type": "bytes32"
                },
                {
                    "internalType": "address",
                    "name": "account",
                    "type": "address"
                }
            ],
            "name": "renounceRole",
            "outputs": [],
            "stateMutability": "nonpayable",
            "type": "function"
        },
        {
            "inputs": [
                {
                    "internalType": "bytes32",
                    "name": "role",
                    "type": "bytes32"
                },
                {
                    "internalType": "address",
                    "name": "account",
                    "type": "address"
                }
            ],
            "name": "revokeRole",
            "outputs": [],
            "stateMutability": "nonpayable",
            "type": "function"
        },
        {
            "inputs": [
                {
                    "internalType": "bytes4",
                    "name": "interfaceId",
                    "type": "bytes4"
                }
            ],
            "name": "supportsInterface",
            "outputs": [
                {
                    "internalType": "bool",
                    "name": "",
                    "type": "bool"
                }
            ],
            "stateMutability": "view",
            "type": "function"
        },
        {
            "inputs": [],
            "name": "tokenContract",
            "outputs": [
                {
                    "internalType": "contract IERC20Upgradeable",
                    "name": "",
                    "type": "address"
                }
            ],
            "stateMutability": "view",
            "type": "function"
        },
        {
            "inputs": [
                {
                    "internalType": "address[]",
                    "name": "_nftContracts",
                    "type": "address[]"
                }
            ],
            "name": "whitelistNFTContracts",
            "outputs": [],
            "stateMutability": "nonpayable",
            "type": "function"
        },
        {
            "inputs": [
                {
                    "internalType": "address",
                    "name": "_account",
                    "type": "address"
                },
                {
                    "internalType": "uint256",
                    "name": "_amount",
                    "type": "uint256"
                },
                {
                    "internalType": "uint8",
                    "name": "_paymentOption",
                    "type": "uint8"
                }
            ],
            "name": "withdrawServiceFees",
            "outputs": [],
            "stateMutability": "nonpayable",
            "type": "function"
        }
    ],
    "bytecode": "608060405234801561001057600080fd5b50612e47806100206000396000f3fe60806040526004361061014b5760003560e01c80637e47daa1116100b6578063d1800eb71161006f578063d1800eb714610464578063d3e256bf14610484578063d547741f146104a4578063d89fb500146104c4578063e88d9567146104d7578063f23a6e61146104f757600080fd5b80637e47daa11461039557806391d14854146103b7578063a217fddf146103d7578063bc197c81146103ec578063c1617fd014610431578063c4d66de81461044457600080fd5b80634094c729116101085780634094c7291461022d57806351f28e141461024d57806355a373d61461030557806368eb49491461033e57806375b238fc146103535780637d8c74e11461037557600080fd5b806301ffc9a7146101505780630de705b51461018557806311a1933c146101a5578063248a9ca3146101bb5780632f2ff15d146101eb57806336568abe1461020d575b600080fd5b34801561015c57600080fd5b5061017061016b3660046125f9565b610523565b60405190151581526020015b60405180910390f35b34801561019157600080fd5b5061012e545b60405190815260200161017c565b3480156101b157600080fd5b5061012f54610197565b3480156101c757600080fd5b506101976101d6366004612623565b600090815260fb602052604090206001015490565b3480156101f757600080fd5b5061020b610206366004612654565b610534565b005b34801561021957600080fd5b5061020b610228366004612654565b61055f565b34801561023957600080fd5b5061020b6102483660046126ef565b6105e2565b34801561025957600080fd5b506102bc610268366004612623565b61013360205260009081526040902080546001820154600283015460038401546004850154600586015460068701546007909701546001600160a01b03968716979590961695939492939192909160ff1688565b604080516001600160a01b03998a168152989097166020890152958701949094526060860192909252608085015260a084015260c083015260ff1660e08201526101000161017c565b34801561031157600080fd5b5061012d54610326906001600160a01b031681565b6040516001600160a01b03909116815260200161017c565b34801561034a57600080fd5b506101976107e9565b34801561035f57600080fd5b50610197600080516020612df283398151915281565b34801561038157600080fd5b5061020b610390366004612783565b6107fa565b3480156103a157600080fd5b506103aa610ba0565b60405161017c91906127a5565b3480156103c357600080fd5b506101706103d2366004612654565b610c03565b3480156103e357600080fd5b50610197600081565b3480156103f857600080fd5b506104186104073660046128c8565b63bc197c8160e01b95945050505050565b6040516001600160e01b0319909116815260200161017c565b61020b61043f366004612783565b610c2e565b34801561045057600080fd5b5061020b61045f366004612976565b6112b2565b34801561047057600080fd5b5061020b61047f3660046129a9565b611411565b34801561049057600080fd5b5061020b61049f366004612623565b61164e565b3480156104b057600080fd5b5061020b6104bf366004612654565b611746565b61020b6104d23660046129e7565b61176c565b3480156104e357600080fd5b5061020b6104f2366004612623565b611cdf565b34801561050357600080fd5b50610418610512366004612a39565b63f23a6e6160e01b95945050505050565b600061052e82611d99565b92915050565b600082815260fb60205260409020600101546105508133611dbe565b61055a8383611e22565b505050565b6001600160a01b03811633146105d45760405162461bcd60e51b815260206004820152602f60248201527f416363657373436f6e74726f6c3a2063616e206f6e6c792072656e6f756e636560448201526e103937b632b9903337b91039b2b63360891b60648201526084015b60405180910390fd5b6105de8282611ea8565b5050565b600080516020612df28339815191526105fb8133611dbe565b81518061064a5760405162461bcd60e51b815260206004820181905260248201527f4d76636d703a2061727261792073697a652063616e6e6f74206265207a65726f60448201526064016105cb565b60005b818110156107a25760006001600160a01b031684828151811061067257610672612aa2565b60200260200101516001600160a01b031614156106d15760405162461bcd60e51b815260206004820152601d60248201527f4d76636d703a20616464726573732063616e6e6f74206265207a65726f00000060448201526064016105cb565b6106f38482815181106106e6576106e6612aa2565b6020026020010151611f0f565b156107405760405162461bcd60e51b815260206004820152601d60248201527f4d76636d703a206164647265737320616c72656164792065786973747300000060448201526064016105cb565b61013184828151811061075557610755612aa2565b60209081029190910181015182546001810184556000938452919092200180546001600160a01b0319166001600160a01b039092169190911790558061079a81612ace565b91505061064d565b50336001600160a01b03167fc301ed3dc00910149cd9ce35439b4f115fcf3d2b8255aded1cc99710a86da2e3846040516107dc91906127a5565b60405180910390a2505050565b60006107f56101325490565b905090565b600260c954141561081d5760405162461bcd60e51b81526004016105cb90612ae9565b600260c95533806108405760405162461bcd60e51b81526004016105cb90612b20565b60008381526101336020526040902060018101546001600160a01b03163381146108ac5760405162461bcd60e51b815260206004820152601a60248201527f4d76636d703a20756e617574686f72697a65642061636365737300000000000060448201526064016105cb565b600084116108fc5760405162461bcd60e51b815260206004820152601b60248201527f4d76636d703a20726571756573746564207a65726f206974656d73000000000060448201526064016105cb565b60038201548061094e5760405162461bcd60e51b815260206004820152601f60248201527f4d76636d703a2063616e6e6f742072656d6f766520736f6c64206974656d730060448201526064016105cb565b8481101561099e5760405162461bcd60e51b815260206004820181905260248201527f4d76636d703a7265717565737420616d6f756e7420756e617661696c61626c6560448201526064016105cb565b60006109aa8683612b57565b84546002860154604051637921219560e11b81529293506001600160a01b039091169163f242432a916109e591309188918c90600401612b6e565b600060405180830381600087803b1580156109ff57600080fd5b505af1158015610a13573d6000803e3d6000fd5b505050508060001415610b4d57600084600601549050806101306000828254610a3c9190612b57565b90915550506040518181526001600160a01b0385169089907fa1351299aa285c6dc6482ee4fbe7c81099877409da4697969ebbc20b09845c8c9060200160405180910390a36000888152610133602052604080822080546001600160a01b0319908116825560018201805490911690556002810183905560038101839055600481018390556005810183905560068101839055600701805460ff19169055516001600160a01b0386169083908381818185875af1925050503d8060008114610b20576040519150601f19603f3d011682016040523d82523d6000602084013e610b25565b606091505b5050905080610b465760405162461bcd60e51b81526004016105cb90612ba6565b5050610b55565b600384018190555b6040805187815260208101839052339189917f2279b881160af8732a3492df9a09f24c52192c49a26ac9266747bb72a1d67009910160405180910390a35050600160c9555050505050565b6060610131805480602002602001604051908101604052809291908181526020018280548015610bf957602002820191906000526020600020905b81546001600160a01b03168152600190910190602001808311610bdb575b5050505050905090565b600091825260fb602090815260408084206001600160a01b0393909316845291905290205460ff1690565b600260c9541415610c515760405162461bcd60e51b81526004016105cb90612ae9565b600260c9553380610c745760405162461bcd60e51b81526004016105cb90612b20565b6000838152610133602052604090206003810154831115610cd75760405162461bcd60e51b815260206004820152601d60248201527f4d76636d703a206e6f7420656e6f756768206e66747320746f2062757900000060448201526064016105cb565b6000838260040154610ce99190612bdd565b600783015490915060ff16610d4d5780341015610d485760405162461bcd60e51b815260206004820181905260248201527f4d76636d703a206e6f7420656e6f756768206d767420666f7220627579696e6760448201526064016105cb565b610e18565b61012d5481906001600160a01b03166370a08231336040516001600160e01b031960e084901b1681526001600160a01b039091166004820152602401602060405180830381865afa158015610da6573d6000803e3d6000fd5b505050506040513d601f19601f82011682018060405250810190610dca9190612bfc565b1015610e185760405162461bcd60e51b815260206004820181905260248201527f4d76636d703a6e6f7420656e6f756768207573647420666f7220627579696e6760448201526064016105cb565b6001820154600283015483546001600160a01b03928316926000928392610e4192879116611f75565b915091506000610e5085611ffe565b9050600081610e5f8488612b57565b610e699190612b57565b905088876003016000828254610e7f9190612b57565b9250508190555088876005016000828254610e9a9190612c15565b90915550506004870154600788015460408051338152602081018d905290810192909252606082018590526080820184905260ff1660a08201526001600160a01b0385811691908716908c907f988ca63fb61fe498f117a8a732b3dc0a4e5c270e4f4f20185827162a19ccdbbe9060c00160405180910390a46001600160a01b038516336001600160a01b03168b7f367de19cc7ae8005799d9615f0866d69ec71d71b4cf6f09fa443f01fb957f92384604051610f5991815260200190565b60405180910390a4836001600160a01b03168a7f6dc4525f9d31bc5fb0ed96d2b0ad26f459f90b032fa4a39cc5da8bbba54afe2f85604051610f9d91815260200190565b60405180910390a3600787015460ff166110ec576000856001600160a01b03168260405160006040518083038185875af1925050503d8060008114610ffe576040519150601f19603f3d011682016040523d82523d6000602084013e611003565b606091505b50509050806110245760405162461bcd60e51b81526004016105cb90612ba6565b6001600160a01b0385161580159061103c5750600084115b156110e6576000856001600160a01b03168560405160006040518083038185875af1925050503d806000811461108e576040519150601f19603f3d011682016040523d82523d6000602084013e611093565b606091505b50509050806110e45760405162461bcd60e51b815260206004820152601d60248201527f4d76636d703a2073656e6420746f2063726561746f72206661696c656400000060448201526064016105cb565b505b50611154565b6111053361012d546001600160a01b031690878461201c565b6001600160a01b0384161580159061111d5750600083115b1561113b5761113b3361012d546001600160a01b031690868661201c565b6111543361012d546001600160a01b031690308561201c565b600387015461123757846001600160a01b03168a7fa1351299aa285c6dc6482ee4fbe7c81099877409da4697969ebbc20b09845c8c896006015460405161119d91815260200190565b60405180910390a3866006015461013060008282546111bc9190612b57565b909155505060068701546040516000916001600160a01b038816918381818185875af1925050503d806000811461120f576040519150601f19603f3d011682016040523d82523d6000602084013e611214565b606091505b50509050806112355760405162461bcd60e51b81526004016105cb90612ba6565b505b86546002880154604051637921219560e11b81526001600160a01b039092169163f242432a9161126f91309133918f90600401612b6e565b600060405180830381600087803b15801561128957600080fd5b505af115801561129d573d6000803e3d6000fd5b5050600160c955505050505050505050505050565b806001600160a01b0381166112d95760405162461bcd60e51b81526004016105cb90612b20565b600054610100900460ff166112f45760005460ff16156112f8565b303b155b61135b5760405162461bcd60e51b815260206004820152602e60248201527f496e697469616c697a61626c653a20636f6e747261637420697320616c72656160448201526d191e481a5b9a5d1a585b1a5e995960921b60648201526084016105cb565b600054610100900460ff1615801561137d576000805461ffff19166101011790555b61138561208d565b61138d6120ce565b61139561208d565b6113ad600080516020612df2833981519152336120fd565b6113c5600080516020612df283398151915280612107565b61012d80546001600160a01b0319166001600160a01b03851617905568056bc75e2d6310000061012e5560fa61012f55600061013055801561055a576000805461ff0019169055505050565b600080516020612df283398151915261142a8133611dbe565b600260c954141561144d5760405162461bcd60e51b81526004016105cb90612ae9565b600260c955600060ff8316611471576101305461146a9047612b57565b90506114e1565b61012d546040516370a0823160e01b81523060048201526001600160a01b03909116906370a0823190602401602060405180830381865afa1580156114ba573d6000803e3d6000fd5b505050506040513d601f19601f820116820180604052508101906114de9190612bfc565b90505b838110156115315760405162461bcd60e51b815260206004820152601f60248201527f4d76636d703a20696e73756666696369656e742073657276696365206665650060448201526064016105cb565b6040805185815260ff851660208201526001600160a01b0387169133917f8390c29f0081e1876b8afb0632c9fdba49cbd33d1f3ed90efbab14a4b4b08564910160405180910390a360ff831661162a576000856001600160a01b03168560405160006040518083038185875af1925050503d80600081146115ce576040519150601f19603f3d011682016040523d82523d6000602084013e6115d3565b606091505b50509050806116245760405162461bcd60e51b815260206004820152601e60248201527f4d76636d703a2073656e64207365727669636520666565206661696c6564000060448201526064016105cb565b50611642565b61012d54611642906001600160a01b03168686612152565b5050600160c955505050565b600080516020612df28339815191526116678133611dbe565b6103e88211156116b95760405162461bcd60e51b815260206004820152601860248201527f4d76636d703a207072696365206578636565647320313025000000000000000060448201526064016105cb565b8161012f5414156117055760405162461bcd60e51b8152602060048201526016602482015275135d98db5c0e881cd85b5948185cc818dd5c9c995b9d60521b60448201526064016105cb565b61012f805490839055604080518281526020810185905233917fea943276b7af14e01ef5207cd2cee75f7c7b742afe03d223779a09627301965591016107dc565b600082815260fb60205260409020600101546117628133611dbe565b61055a8383611ea8565b600260c954141561178f5760405162461bcd60e51b81526004016105cb90612ae9565b600260c95533806117b25760405162461bcd60e51b81526004016105cb90612b20565b6117c161013280546001019055565b60006117cd6101325490565b90506000851161181f5760405162461bcd60e51b815260206004820152601b60248201527f4d76636d703a207a65726f206e756d626572206f66206974656d73000000000060448201526064016105cb565b61012e543410156118725760405162461bcd60e51b815260206004820152601a60248201527f4d76636d703a206465706f73697420666565206973206c65737300000000000060448201526064016105cb565b846001600160a01b03871662fdd58e336040516001600160e01b031960e084901b1681526001600160a01b039091166004820152602481018b9052604401602060405180830381865afa1580156118cd573d6000803e3d6000fd5b505050506040513d601f19601f820116820180604052508101906118f19190612bfc565b101561193f5760405162461bcd60e51b815260206004820152601d60248201527f4d76636d703a206e6f7420656e6f756768206e66742062616c616e636500000060448201526064016105cb565b60ff8316158061195257508260ff166001145b61199e5760405162461bcd60e51b815260206004820152601d60248201527f4d76636d703a20696e76616c6964207061796d656e74206f7074696f6e00000060448201526064016105cb565b600084116119ee5760405162461bcd60e51b815260206004820152601b60248201527f4d76636d703a2070726963652063616e6e6f74206265207a65726f000000000060448201526064016105cb565b6119f786611f0f565b1515600114611a485760405162461bcd60e51b815260206004820152601f60248201527f4d76636d703a20636f6e7472616374206e6f742077686974656c69737465640060448201526064016105cb565b604051806101000160405280876001600160a01b03168152602001611a6a3390565b6001600160a01b03908116825260208083018b905260408084018a905260608085018a90526000608080870182905261012e805460a0808a019190915260ff808e1660c09a8b01528b855261013388528685208b518154908b166001600160a01b0319918216178255988c015160018201805491909b16991698909817909855948901516002870155928801516003860155870151600485015591860151600584015593850151600683015560e090940151600790910180549190921660ff1990911617905554610130805491929091611b45908490612c15565b90915550506001600160a01b03861687827f09bbfe20a57f355e738afaf49901fbb8faafa23683a91ddaef1a732522d962d53361012e54604080516001600160a01b039093168352602083018c905282018a9052606082015260ff8816608082015260a00160405180910390a4604051637921219560e11b81526001600160a01b0387169063f242432a90611be490339030908c908b90600401612b6e565b600060405180830381600087803b158015611bfe57600080fd5b505af1158015611c12573d6000803e3d6000fd5b50505050600061012e5434611c279190612b57565b90508015611cd057604051818152339083907f623b39469f1ce38781ef2515d3a35e6a2fb4fdd958e7a3557170eca2b30677c59060200160405180910390a3604051600090339083908381818185875af1925050503d8060008114611ca8576040519150601f19603f3d011682016040523d82523d6000602084013e611cad565b606091505b5050905080611cce5760405162461bcd60e51b81526004016105cb90612ba6565b505b5050600160c955505050505050565b600080516020612df2833981519152611cf88133611dbe565b8161012e541415611d445760405162461bcd60e51b8152602060048201526016602482015275135d98db5c0e881cd85b5948185cc818dd5c9c995b9d60521b60448201526064016105cb565b61012e54611d5a83670de0b6b3a7640000612bdd565b61012e81905560408051838152602081019290925233917f9b68e2ed5b1faf1750bebb69bfa00f8624ff80bb467275a9c1c7d5bf3ca133d191016107dc565b60006001600160e01b03198216637965db0b60e01b148061052e575061052e82612182565b611dc88282610c03565b6105de57611de0816001600160a01b031660146121b7565b611deb8360206121b7565b604051602001611dfc929190612c59565b60408051601f198184030181529082905262461bcd60e51b82526105cb91600401612cce565b611e2c8282610c03565b6105de57600082815260fb602090815260408083206001600160a01b03851684529091529020805460ff19166001179055611e643390565b6001600160a01b0316816001600160a01b0316837f2f8788117e7eff1d82e926ec794901d17c78024a50270940304540a733656f0d60405160405180910390a45050565b611eb28282610c03565b156105de57600082815260fb602090815260408083206001600160a01b0385168085529252808320805460ff1916905551339285917ff6391f5c32d9c69d2a47ea670b442974b53935d1edc7fd64eb21e047a839171b9190a45050565b6000805b61013154811015611f6c576101318181548110611f3257611f32612aa2565b6000918252602090912001546001600160a01b0384811691161415611f5a5750600192915050565b80611f6481612ace565b915050611f13565b50600092915050565b60405163152a902d60e11b8152600481018490526024810183905260009081906001600160a01b03841690632a55205a906044016040805180830381865afa925050508015611fe1575060408051601f3d908101601f19168201909252611fde91810190612d01565b60015b611ff057506000905080611ff6565b90925090505b935093915050565b600061271061012f54836120129190612bdd565b61052e9190612d2f565b6040516001600160a01b03808516602483015283166044820152606481018290526120879085906323b872dd60e01b906084015b60408051601f198184030181529190526020810180516001600160e01b03166001600160e01b03199093169290921790915261235a565b50505050565b600054610100900460ff166120b45760405162461bcd60e51b81526004016105cb90612d51565b6120bc61242c565b6120c461242c565b6120cc61242c565b565b600054610100900460ff166120f55760405162461bcd60e51b81526004016105cb90612d51565b6120cc612453565b6105de8282611e22565b600082815260fb6020526040808220600101805490849055905190918391839186917fbd79b86ffe0ab8e8776151514217cd7cacd52c909f66475c3af44e129f0b00ff9190a4505050565b6040516001600160a01b03831660248201526044810182905261055a90849063a9059cbb60e01b90606401612050565b60006001600160e01b03198216630271189760e51b148061052e57506301ffc9a760e01b6001600160e01b031983161461052e565b606060006121c6836002612bdd565b6121d1906002612c15565b67ffffffffffffffff8111156121e9576121e9612684565b6040519080825280601f01601f191660200182016040528015612213576020820181803683370190505b509050600360fc1b8160008151811061222e5761222e612aa2565b60200101906001600160f81b031916908160001a905350600f60fb1b8160018151811061225d5761225d612aa2565b60200101906001600160f81b031916908160001a9053506000612281846002612bdd565b61228c906001612c15565b90505b6001811115612304576f181899199a1a9b1b9c1cb0b131b232b360811b85600f16601081106122c0576122c0612aa2565b1a60f81b8282815181106122d6576122d6612aa2565b60200101906001600160f81b031916908160001a90535060049490941c936122fd81612d9c565b905061228f565b5083156123535760405162461bcd60e51b815260206004820181905260248201527f537472696e67733a20686578206c656e67746820696e73756666696369656e7460448201526064016105cb565b9392505050565b60006123af826040518060400160405280602081526020017f5361666545524332303a206c6f772d6c6576656c2063616c6c206661696c6564815250856001600160a01b03166124819092919063ffffffff16565b80519091501561055a57808060200190518101906123cd9190612db3565b61055a5760405162461bcd60e51b815260206004820152602a60248201527f5361666545524332303a204552433230206f7065726174696f6e20646964206e6044820152691bdd081cdd58d8d9595960b21b60648201526084016105cb565b600054610100900460ff166120cc5760405162461bcd60e51b81526004016105cb90612d51565b600054610100900460ff1661247a5760405162461bcd60e51b81526004016105cb90612d51565b600160c955565b60606124908484600085612498565b949350505050565b6060824710156124f95760405162461bcd60e51b815260206004820152602660248201527f416464726573733a20696e73756666696369656e742062616c616e636520666f6044820152651c8818d85b1b60d21b60648201526084016105cb565b843b6125475760405162461bcd60e51b815260206004820152601d60248201527f416464726573733a2063616c6c20746f206e6f6e2d636f6e747261637400000060448201526064016105cb565b600080866001600160a01b031685876040516125639190612dd5565b60006040518083038185875af1925050503d80600081146125a0576040519150601f19603f3d011682016040523d82523d6000602084013e6125a5565b606091505b50915091506125b58282866125c0565b979650505050505050565b606083156125cf575081612353565b8251156125df5782518084602001fd5b8160405162461bcd60e51b81526004016105cb9190612cce565b60006020828403121561260b57600080fd5b81356001600160e01b03198116811461235357600080fd5b60006020828403121561263557600080fd5b5035919050565b6001600160a01b038116811461265157600080fd5b50565b6000806040838503121561266757600080fd5b8235915060208301356126798161263c565b809150509250929050565b634e487b7160e01b600052604160045260246000fd5b604051601f8201601f1916810167ffffffffffffffff811182821017156126c3576126c3612684565b604052919050565b600067ffffffffffffffff8211156126e5576126e5612684565b5060051b60200190565b6000602080838503121561270257600080fd5b823567ffffffffffffffff81111561271957600080fd5b8301601f8101851361272a57600080fd5b803561273d612738826126cb565b61269a565b81815260059190911b8201830190838101908783111561275c57600080fd5b928401925b828410156125b55783356127748161263c565b82529284019290840190612761565b6000806040838503121561279657600080fd5b50508035926020909101359150565b6020808252825182820181905260009190848201906040850190845b818110156127e65783516001600160a01b0316835292840192918401916001016127c1565b50909695505050505050565b600082601f83011261280357600080fd5b81356020612813612738836126cb565b82815260059290921b8401810191818101908684111561283257600080fd5b8286015b8481101561284d5780358352918301918301612836565b509695505050505050565b600082601f83011261286957600080fd5b813567ffffffffffffffff81111561288357612883612684565b612896601f8201601f191660200161269a565b8181528460208386010111156128ab57600080fd5b816020850160208301376000918101602001919091529392505050565b600080600080600060a086880312156128e057600080fd5b85356128eb8161263c565b945060208601356128fb8161263c565b9350604086013567ffffffffffffffff8082111561291857600080fd5b61292489838a016127f2565b9450606088013591508082111561293a57600080fd5b61294689838a016127f2565b9350608088013591508082111561295c57600080fd5b5061296988828901612858565b9150509295509295909350565b60006020828403121561298857600080fd5b81356123538161263c565b803560ff811681146129a457600080fd5b919050565b6000806000606084860312156129be57600080fd5b83356129c98161263c565b9250602084013591506129de60408501612993565b90509250925092565b600080600080600060a086880312156129ff57600080fd5b853594506020860135612a118161263c565b93506040860135925060608601359150612a2d60808701612993565b90509295509295909350565b600080600080600060a08688031215612a5157600080fd5b8535612a5c8161263c565b94506020860135612a6c8161263c565b93506040860135925060608601359150608086013567ffffffffffffffff811115612a9657600080fd5b61296988828901612858565b634e487b7160e01b600052603260045260246000fd5b634e487b7160e01b600052601160045260246000fd5b6000600019821415612ae257612ae2612ab8565b5060010190565b6020808252601f908201527f5265656e7472616e637947756172643a207265656e7472616e742063616c6c00604082015260600190565b6020808252601d908201527f4d76636d703a2063616e6e6f74206265207a65726f2061646472657373000000604082015260600190565b600082821015612b6957612b69612ab8565b500390565b6001600160a01b0394851681529290931660208301526040820152606081019190915260a06080820181905260009082015260c00190565b6020808252601c908201527f4d76636d703a2073656e6420746f2073656c6c6572206661696c656400000000604082015260600190565b6000816000190483118215151615612bf757612bf7612ab8565b500290565b600060208284031215612c0e57600080fd5b5051919050565b60008219821115612c2857612c28612ab8565b500190565b60005b83811015612c48578181015183820152602001612c30565b838111156120875750506000910152565b7f416363657373436f6e74726f6c3a206163636f756e7420000000000000000000815260008351612c91816017850160208801612c2d565b7001034b99036b4b9b9b4b733903937b6329607d1b6017918401918201528351612cc2816028840160208801612c2d565b01602801949350505050565b6020815260008251806020840152612ced816040850160208701612c2d565b601f01601f19169190910160400192915050565b60008060408385031215612d1457600080fd5b8251612d1f8161263c565b6020939093015192949293505050565b600082612d4c57634e487b7160e01b600052601260045260246000fd5b500490565b6020808252602b908201527f496e697469616c697a61626c653a20636f6e7472616374206973206e6f74206960408201526a6e697469616c697a696e6760a81b606082015260800190565b600081612dab57612dab612ab8565b506000190190565b600060208284031215612dc557600080fd5b8151801515811461235357600080fd5b60008251612de7818460208701612c2d565b919091019291505056fea49807205ce4d355092ef5a8a18f56e8913cf4a201fbe287825b095693c21775a26469706673582212201d41929946c23a6e3b96448e08ff0a5a2470b27eb6caabbf0c5b40172991a87064736f6c634300080b0033",
    "sourcePath": "/home/abc/Solulab/multivac-smartcontracts/contracts/MNFTMarketplace.sol",
    "compiler": {
        "name": "solc",
        "version": "0.8.11+commit.d7f03943"
    },
    "functionHashes": {
        "ADMIN_ROLE()": "75b238fc",
        "DEFAULT_ADMIN_ROLE()": "a217fddf",
        "buyMarketItem(uint256,uint256)": "c1617fd0",
        "changeDepositFee(uint256)": "e88d9567",
        "changeServiceFee(uint256)": "d3e256bf",
        "createMarketItem(uint256,address,uint256,uint256,uint8)": "d89fb500",
        "getCurrentItemId()": "68eb4949",
        "getDepositFee()": "0de705b5",
        "getRoleAdmin(bytes32)": "248a9ca3",
        "getServiceFee()": "11a1933c",
        "getWhitelistedContracts()": "7e47daa1",
        "grantRole(bytes32,address)": "2f2ff15d",
        "hasRole(bytes32,address)": "91d14854",
        "initialize(address)": "c4d66de8",
        "marketItems(uint256)": "51f28e14",
        "onERC1155BatchReceived(address,address,uint256[],uint256[],bytes)": "bc197c81",
        "onERC1155Received(address,address,uint256,uint256,bytes)": "f23a6e61",
        "removeMarketItems(uint256,uint256)": "7d8c74e1",
        "renounceRole(bytes32,address)": "36568abe",
        "revokeRole(bytes32,address)": "d547741f",
        "supportsInterface(bytes4)": "01ffc9a7",
        "tokenContract()": "55a373d6",
        "whitelistNFTContracts(address[])": "4094c729",
        "withdrawServiceFees(address,uint256,uint8)": "d1800eb7"
    },
    "gasEstimates": {
        "creation": {
            "codeDepositCost": "2369400",
            "executionCost": "2545",
            "totalCost": "2371945"
        },
        "external": {
            "ADMIN_ROLE()": "infinite",
            "DEFAULT_ADMIN_ROLE()": "262",
            "buyMarketItem(uint256,uint256)": "infinite",
            "changeDepositFee(uint256)": "infinite",
            "changeServiceFee(uint256)": "infinite",
            "createMarketItem(uint256,address,uint256,uint256,uint8)": "infinite",
            "getCurrentItemId()": "2419",
            "getDepositFee()": "2327",
            "getRoleAdmin(bytes32)": "2534",
            "getServiceFee()": "2360",
            "getWhitelistedContracts()": "infinite",
            "grantRole(bytes32,address)": "infinite",
            "hasRole(bytes32,address)": "2698",
            "initialize(address)": "infinite",
            "marketItems(uint256)": "17489",
            "onERC1155BatchReceived(address,address,uint256[],uint256[],bytes)": "infinite",
            "onERC1155Received(address,address,uint256,uint256,bytes)": "infinite",
            "removeMarketItems(uint256,uint256)": "infinite",
            "renounceRole(bytes32,address)": "29134",
            "revokeRole(bytes32,address)": "infinite",
            "supportsInterface(bytes4)": "infinite",
            "tokenContract()": "2404",
            "whitelistNFTContracts(address[])": "infinite",
            "withdrawServiceFees(address,uint256,uint8)": "infinite"
        },
        "internal": {
            "_computeServiceFee(uint256)": "2283",
            "_getRoyalty(uint256,uint256,address)": "infinite",
            "_verifyContract(address)": "infinite"
        }
    }
}